{
    "contractName": "Raffle",
    "abi": [
        {
            "inputs": [
                {
                    "internalType": "uint256",
                    "name": "entranceFee",
                    "type": "uint256"
                }
            ],
            "stateMutability": "nonpayable",
            "type": "constructor"
        },
        {
            "inputs": [],
            "name": "enterRaffle",
            "outputs": [],
            "stateMutability": "payable",
            "type": "function"
        },
        {
            "inputs": [],
            "name": "getEntranceFee",
            "outputs": [
                {
                    "internalType": "uint256",
                    "name": "",
                    "type": "uint256"
                }
            ],
            "stateMutability": "view",
            "type": "function"
        },
        {
            "inputs": [],
            "name": "pickWinner",
            "outputs": [],
            "stateMutability": "nonpayable",
            "type": "function"
        }
    ],
    "bytecode": "60a034605557601f61013338819003918201601f19168301916001600160401b038311848410176059578084926020946040528339810103126055575160805260405160c5908161006e823960805181606c0152f35b5f80fd5b634e487b7160e01b5f52604160045260245ffdfe60808060405260043610156011575f80fd5b5f3560e01c90816309bc33a7146059575080632cfcc53914604d57635d495aea146039575f80fd5b346049575f366003190112604957005b5f80fd5b5f366003190112604957005b346049575f3660031901126049576020907f00000000000000000000000000000000000000000000000000000000000000008152f3fea2646970667358221220b4b263ec0a0ca9b352578e4e158ad1ae2d5f6571b9535d443e50cf5217f131e764736f6c634300081c0033",
    "sourcePath": "c:/Users/arun singh/Desktop/Blockchain/OCT/CODING/web3/lottery-contract/src/Raffle.sol",
    "compiler": {
        "name": "solc",
        "version": "0.8.28+commit.7893614a"
    },
    "functionHashes": {
        "enterRaffle()": "2cfcc539",
        "getEntranceFee()": "09bc33a7",
        "pickWinner()": "5d495aea"
    },
    "gasEstimates": {
        "creation": {
            "codeDepositCost": "39400",
            "executionCost": "infinite",
            "totalCost": "infinite"
        },
        "external": {
            "enterRaffle()": "142",
            "getEntranceFee()": "infinite",
            "pickWinner()": "176"
        }
    }
}